:02000004080AE8
:1000000000000A0868450A0800000500060005010E
:080010000402EA0300000000F5
:100018008C3D0A0809480A4908B5884205D0094AAA
:10002800824202D0121A03F011FD0748074A002144
:10003800121A03F016FD064808BD00BF0003002091
:1000480094440A08AC030020AC0300206C11002083
:100058006C11002070B502F0B9FF074B074C1E4623
:10006800E41AA4080025A54204D056F8253098477C
:100078000135F8E770BD00BF38440A0888440A080B
:1000880001F012B908B500F0C1FCBDE8084002F063
:100098005FBF02F06DBA0078B0FA80F0400970478F
:1000A800012303707047106870470000074A1388DF
:1000B80003EB432003EB800000F55850193080B261
:1000C800108000EB1020C0B2704700BF3C03002036
:1000D800C0F3CA03410442BFC3F5FF6307339BB2B1
:1000E800084A190A10B5545CC3F34602064B33F8A4
:1000F800113004FB023302049BB252BF18B25842BB
:1001080000B210BDB83D0A08F03E0A0800F04003EE
:1001180010B503F0FF0113B1C343DBB200E003469F
:1001280003F03F0203F00F0301B101330849121134
:1001380052008C1864788A5C634302EB2313DBB2A9
:1001480002064ABF584258B240B28038C0B210BD09
:10015800003F0A0813B503680A461C6800238DF897
:1001680000308DF801308DF802308DF804308DF8AC
:1001780005308DF80630694601ABA04702B010BDC6
:1001880010B5044601210F2002F070FF8023A361FF
:10019800014BE36110BD00BF1400024038B5064DA5
:1001A800002404F1A4002844143C02F056FB14F186
:1001B800B40FF6D138BD00BF5808002008B5044A6E
:1001C800012312789621034801F01DFE082008BD7E
:1001D800A9050020B705002002F082B802F088B80F
:1001E80010B502F06EFC0A4C0028206001DA0023EA
:1001F80004E0084B1B68984201DB013B236002F0D6
:1002080059FF21780120FFF7E9FF206810BD00BFE2
:1002180090070020380300202DE9FF4102F050F834
:10022800184B00265843000EFFF770FF3546BF24D1
:10023800604304124034DFF85880134FE4B298F852
:10024800002005EB8503A11A0B442A4401210091E3
:10025800DBB2D2B20D4903A801F0CEFE9DF80C30F6
:100268009DF80D20F355BB195A7003369DF80E20E2
:100278000235B6F5E17F9A70EDB2E0D1082004B0FE
:10028800BDE8F08100D04300B705002042090020F6
:10029800A9050020F7B59B4C9B4E22789B4F531C19
:1002A80023700023D95DF81899554578F11880789E
:1002B8000333B3F5E17F4D708870934D9349F1D1C5
:1002C800934E3388581CB3F58C7F30803EBF9148DD
:1002D8001D270770A3F58C70DB288F4805D88D4F34
:1002E8004FF02D0E87F800E004E0B3F58C7F01D2C3
:1002F800012700E000270770007828B1133A12F0B0
:10030800FF0208BF01222270A3F51673BD2B834B91
:1003180094BF012200221A701A78814F32B1FFF778
:10032800C5FE2E2358430012387008E03B78794800
:1003380001330078DBB298423B7038BF3A7033889B
:10034800784EA3F21732B2F5967F08D2FFF7AEFEC9
:10035800C0EB401000126F4B0730187009E040F2F4
:100368009C42934205D16A4B00221A8033780133AC
:1003780033703378012B01D1002202E0022B03D124
:100388000122694B1A7010E0032B07D1FFF78EFE8C
:100398000B235843644B0012187006E0042B04D159
:1003A800614A002313705F4A13703A7800232D2A9C
:1003B80030D8DFE802F0175B6A737C858E97A0BBA4
:1003C8002C2C2C2C2C2C2C2C2C2C2C2C2C2C2C2C65
:1003D8002C2C2C2C2C2C2C2C2C2C2C2C2C2C2C2C55
:1003E8002C2C2C2C504B1A7800230A2A12D8DFE820
:1003F80002F0060D16191D2123292C323700237807
:100408008DF80430FF238DF8053037E064230B7036
:100418004B708B703D4A002340F2BF108FE0FF23E2
:100428000B700CE0EE230B70822201E00B7080222F
:100438004A70EEE780220FE0FF230B70A5234B7074
:100448000023E6E70B70FF23E2E7AD230B70FF23E1
:100458004B702F23DDE7FF220A704B708A70D9E7B3
:1004680087230B70CE234B70EB23D2E72378143B02
:100478008DF80430FF238DF80530D223234901A8D5
:100488008DF8063001F04AFEC4E72378163B8DF854
:100498000430FF238DF80530B423EFE72378173BAA
:1004A8008DF80430FF238DF805309623E6E723788E
:1004B800183B8DF80430FF238DF805306E23DDE7F7
:1004C8002378193B8DF80430FF238DF805305A2323
:1004D800D4E723781A3B8DF80430A0238DF8053033
:1004E8003C23CBE723781B3B8DF804308C238DF815
:1004F80005302823C2E723781C3B8DF80430782385
:1005080019E000BFA8050020E0030020B70500207F
:10051800D207002054080020D1070020B005002091
:10052800B605002027030020A205002023781D3BE4
:100538008DF8043064238DF8053014239EE7E95CB8
:1005480003321170E9184C78033389788342547068
:100558009170F4D11E2003B0F0BD00BF2DE9F74F14
:10056800424F142296214248002601F043FDB2462C
:10057800B946DFF8FC8097F800B03C4C5E4545DA98
:1005880001F09EFE4FF4AF135843730103EB106064
:10059800C0B2FFF7BBFD4B246043F307C0F3072449
:1005A8005CBFC4F19504E4B2FF2301A968468DF845
:1005B80000A08DF801308DF8023001F0AFFD600029
:1005C800031918F803209DF8041001368A42284AB6
:1005D80038BF08F803100319134493F801E09DF895
:1005E800051004448E4538BF597014449DF80630F0
:1005F800A2789A4299F8002038BFA3704FF480730C
:1006080093FBF2F353445FFA83FAB4E7194E337855
:10061800012B0FD101F054FE4FF4AF1250434FEAB3
:100628004B1303EB1060C0B2FFF770FD4B25684316
:10063800C0F307254A3DEDB2012D0F4B0FD81A78AC
:100648007AB901221A70237832781344DBB2072B67
:10065800237001D0012B04D15242327001E00022F4
:100668001A70002003B0BDE8F08F00BF26030020F9
:10067800B705002024030020C40B002038B5044629
:1006880001F01EFE2368C01A6368834294BF0125E7
:10069800002502D801F014FE2060284638BD70B548
:1006A800054601F00DFE4FF47A74B0FBF4F02B8888
:1006B800C01A6B8880B2834294BF0126002604D8F2
:1006C80001F0FEFDB0FBF4F02880304670BD10B597
:1006D80004780A782244FF2AA8BFFF2202704A78C9
:1006E80044782244FF2AA8BFFF2242708978827882
:1006F8000A44FF2AA8BFFF22827010BD37B5154DE6
:1007080014229621284601F075FC01F0D9FD124B00
:100718005843000CFFF7DCFC0446104B01A91B787A
:1007280068468DF80030FF238DF80130C0238DF81E
:10073800023001F0F3FCA4F50040962380B2584340
:10074800000C00EB400001A92844FFF7C0FF082077
:1007580003B030BDB705002000380E00A905002001
:100768002DE9F3474D4C4E4E236813F0010F0DD180
:100778002046FFF790FC48B13278FF2393FBF2F351
:10078800484A013B20461370FFF78AFC01F098FDA8
:100798004FF47A73B0FBF3F31E22B3FBF2F002FBC3
:1007A8001030414BC2B21978404C9142404928D090
:1007B8000A281A700DD0142817D010BB01233370E3
:1007C8003C4B14221A70374B10221A7002230B70FC
:1007D80016E004233370374B10221870314B1A700F
:1007E80008230B70802323700BE0324A032010701B
:1007F8002C4A08230020337010700B70FFF756FC4A
:10080800207023782C4D0A782C4896212B7001F003
:10081800F1FBDFF8A0A0DFF8A880284F4FF000090F
:100828003378994535DA9AF800401C444C44A4B210
:10083800FF2C9CBF2402A4B201F042FD4FF48C733C
:1008480058436043000CFFF743FC044698F8002027
:100858002B7801A913448DF800306846FF238DF8E2
:1008680001308DF8023001F059FCA4F500409623C0
:1008780080B25843000C00EB400001A93844FFF750
:1008880026FF084B2A781B7809F1010913442B70BD
:10089800C6E7002002B0BDE8F08700BF9C07002033
:1008A80010030020D407002008030020A007002020
:1008B800250300200003002079070020B705002049
:1008C800A9050020034630B5043900F1300451F879
:1008D800042F0333150C03F8035C150A03F8025CB4
:1008E80003F8012CA342F2D130BD2DE9F04F0746A1
:1008F8000E4689B0002456F824200134D2B2FF2ACB
:10090800E4B2F8D132680020C2F3072EC2F3074CD4
:100918004FEA12694FF0FF3556F8042F0011C2F361
:10092800072B5FFA8BF3C2F3074A5FFA82F8039347
:10093800C2F307625FFA8AF304930F2CD3B20593CC
:10094800C1B24FEA181309D8A84206DC0F2D04D00B
:10095800691CC9B28B4238BF0B465DB28DF81E20A8
:1009680007AA0092384606AA8DF818E08DF819C033
:100978008DF81A908DF81CB08DF81DA001F061FA61
:100988004046FF28DDF81490DDF810C0DDF80CE0D3
:10099800C2D1384609B0BDE8F08F017801F09AB9A4
:1009A80008B502F08EF80028054B01DA002204E0B1
:1009B800012801DC186001E001221A60186808BDEE
:1009C8001403002010B502F07CF800280D4C01DC5F
:1009D800012304E0FF2801DC206001E0FF232360FD
:1009E80021680948FE290170CCBF0021012101F0CE
:1009F80049F902F05FFB21780020FFF7EFFB206840
:100A080010BD00BF18030020C80B00202DE9F04FCF
:100A1800AF4C91B0208802F03AFBAE4E8046306071
:100A28000494DFF820B3AC4D002840F08280DBF856
:100A38000030012B7DD12B78A84C002B00F03D8194
:100A480001F03EFC2368C01AA54B1B68984280F051
:100A58003481A44CA44F23683A680133934223603D
:100A680001DBC4F800802368DFF8DC820A2258F82A
:100A780023900CA8494601F075FF0CA8FFF7A2FFC8
:100A88000CA801F0EAFE02F069F9984905900CA853
:100A980001F02AFF0A22494608A801F063FF08A9C5
:100AA8000CA801F09CFF059B0168184601F061FE47
:100AB80008A801F0D2FE0CA801F0CFFE0023DFF851
:100AC80024A22B70B9F1000F67D102F047F98849C9
:100AD80001F04FFE8748FFF760FFDAF800303A6808
:100AE80001339342CAF80030A8BFCAF800902368BF
:100AF8000A2258F823100CA801F034FF0CA8FFF7BD
:100B080061FF0CA801F0A9FE642001F041FD7A4BB9
:100B180001221968049B0CA81B68ADF8203010ABA3
:100B280003F8212D029100210191009208A901F0FA
:100B3800E7FF2B78002B30D001F0C2FB674B1B6816
:100B4800C01A674B1B68984227D96C4C6C492368BC
:100B58000968013300228B422A70236000DB22607F
:100B680002F0A8FA21780120FFF738FB02F0F6F826
:100B7800644905460CA801F0B7FE2368624A1421AF
:100B880001FB03210CA8043101F029FF0168284664
:100B980001F0EFFD0CA801F060FE3368CBF80030DF
:100BA8005A4B1B68002B13DC00230CAA96215848CB
:100BB8008DF830308DF831308DF8323001F011F980
:100BC8004C48FFF7EAFE0F214A4801F0BFF8BDE0A4
:100BD8004A4B1A68142353434B4AD3589847044640
:100BE8004448FFF7DAFE21464A4C424801F0AEF885
:100BF8002368D9070CD42046FFF74DFA40B101F01D
:100C08005FFB454B282218605A602046FFF748FAD8
:100C18004148FFF733FD20B110224049404801F018
:100C28003CFA404C2368DA070CD42046FFF733FA25
:100C380040B101F045FB3C4B282218605A60204621
:100C4800FFF72EFA3848FFF719FD18B1374A13781D
:100C580001331370364C2368DB0710D42046FFF7A6
:100C68001AFA60B101F02CFB4FF47A73B0FBF3F081
:100C7800304A1423108020465380FFF711FA2D487C
:100C8800FFF70DFD002861D02B4B2C491A78097805
:100C98000132D2B291421A709CBF00221A701A789F
:100CA800274B302101FB02331C4A591853F8040B17
:100CB8008B4242F8040BF9D148E02B78002B7FF4E3
:100CC8003BAF054B01221A7001F0FAFA206030E7B9
:100CD8003403002008080020D50700202C0300203A
:100CE8000C0300209807002028030020EC3D0A0888
:100CF800FF3D0A08C80B0020C00B00209007002009
:100D080038030020053E0A08580800201403002074
:100D1800B7050020840700200C08002014080020D4
:100D28004209002088070020080A0020A9050020A1
:100D38008C070020B2050020940700200103002042
:100D4800100A002020030020C03D0A0811B0BDE8A9
:100D5800F08F00BFF0B5224C85B000230C2201A90A
:100D680001F068FE214601A802F01EFF02F058FEBD
:100D78001C4F21463860002002F016FF02F050FE9A
:100D8800194E21463060002002F00EFF02F048FEA6
:100D9800164D21462860002002F006FF144B3A68E1
:100DA8001A7032685A702A689A70124B124A1B6875
:100DB800013B136002F07EF939780220FFF70EFA42
:100DC80002F078F931780320FFF708FA02F072F997
:100DD80029780420FFF702FA002005B0F0BD00BF13
:100DE800153E0A08A4050020DC030020300300207B
:100DF80080070020380300209007002010B501F07C
:100E080060FE154C10F10C0F2060144B02DA6FF0E5
:100E18000B0203E01A680D2A01DD0D221A6002F0A8
:100E2800BFFB01F0B3FE2368002B03DA02F042F99E
:100E3800002102E002F03EF901210520FFF7CEF97A
:100E480002F038F9216806200029B8BF4942C9B222
:100E5800FFF7C4F9206810BD1C030020140300200C
:100E680010B501F02EFE0028084C01DA002304E03A
:100E7800012801DC206001E00123236002F01AF957
:100E880021780720FFF7AAF9206810BDAC050020DB
:100E980008B501F016FE80F30800C0B208BD0000D6
:100EA80030B5044685B07249684601F01DFD6946B3
:100EB800204601F0B6FD0546684601F0CEFC45B176
:100EC80068460422214601F0F5FD6846FFF768FDF3
:100ED800C4E06849684601F007FD6946204601F00C
:100EE800A0FD0546684601F0B8FC45B168460422F5
:100EF800214601F0DFFD6846FFF764FDAEE05E497C
:100F0800684601F0F1FC6946204601F08AFD054675
:100F1800684601F0A2FCA5B121460222684601F00C
:100F2800C9FD6846FFF7B4FF544C2060684601F0DD
:100F380094FC2268524B1A7002F0BCF82178022007
:100F480042E05049684601F0CFFC6946204601F06E
:100F580068FD0546684601F080FCA5B121460222DD
:100F6800684601F0A7FD6846FFF792FF464C2060EF
:100F7800684601F072FC2268414B5A7002F09AF8F8
:100F88002178032020E04149684601F0ADFC69461C
:100F9800204601F046FD0546684601F05EFCE5B1D5
:100FA80021460222684601F085FD6846FFF770FF7A
:100FB800374C2060684601F050FC2268304B9A702C
:100FC80002F078F821780420FFF708F9314B324A0B
:100FD8001B68013B1360246847E03049684601F00C
:100FE80083FC6946204601F01CFD0546684601F071
:100FF80034FC45B168460222214601F05BFD684693
:10100800FFF7A8FE2AE02649684601F06DFC69460C
:10101800204601F006FD0546684601F01EFC45B174
:1010280068460322214601F045FD6846FFF7E6FEC3
:1010380014E01C49684601F057FC6946204601F057
:10104800F0FC0546684601F008FC65B168460722D1
:10105800214601F02FFD6846FFF702FF0446684667
:1010680001F0FBFB01E04FF0FF34204605B030BD36
:10107800173E0A081C3E0A08193E0A08A405002063
:1010880080070020213E0A08DC030020243E0A08CD
:10109800300300203803002090070020273E0A086C
:1010A8002A3E0A082E3E0A082DE9F04F87B0002490
:1010B80005AA03918346962146488DF814408DF879
:1010C80015408DF8164000F08CFE4FF4807001F04A
:1010D80086FB414A414F13884FF04B091844108052
:1010E80007F1010A3D4607F14B0815F8011FFEF705
:1010F800DDFF00EBC000A1EB202121EAE1714545AD
:101108002970F2D109FB04A107F14A0303201A78D8
:1011180013F8015D02EB450292FBF0F28B429A70E4
:10112800F5D1FEF7C3FF772814D8FEF7BFFF2C4B85
:10113800C0EBC00009FB04360512715DFEF7B6FF6F
:101148005F2358430312603BDBB21944FF29A8BF51
:10115800FF217155234D6E1E17F8012FF0235A43B6
:1011680001230093C2F30722FF23594605A800F084
:1011780043FF03989DF814109DF815209DF816302C
:1011880070B134B986F8DE1086F8DF2086F8E030D2
:1011980012E085F8E01085F8E12085F8E2300BE0F0
:1011A80024B905F8011C2A706B7005E086F8BF1198
:1011B80086F8C02186F8C1310B4B0335AB42A6F146
:1011C8000306C9D10134022C47468BD107B0BDE8CC
:1011D800F08F00BFB70500203C03002071090020F4
:1011E80072090020B80500209906002000B58DB0CE
:1011F80005496846FFF766FB68460121FFF754FF7B
:101208001E200DB05DF804FB08400A0830B58DB00B
:101218006C46094B03F130052246186859680833B3
:1012280003C2AB421446F7D168460021FFF73CFFE2
:101238001E200DB030BD00BFD607002007B50146FF
:10124800FEF734FF88421BD20F4A9620138803EB1F
:10125800432103EB810303F5585319339BB21380E1
:1012680043430A481B0C03EB4303FF2201A918441C
:101278008DF804208DF805208DF80620FFF727FA51
:1012880003B05DF804FB00BF3C030020B705002055
:1012980008B5FEF793FF5020FFF7D0FF082008BDE0
:1012A8000023022201F03CB92DE9F3419948046872
:1012B80014F001041FD1FEF7EEFEE0B1964BFF22B9
:1012C8001A735A739A73DA731A745A7401229A74D5
:1012D800924A5C6011685C619C6001B91360904A35
:1012E800116801B18B60136000221A848D4A894805
:1012F8001A60FEF7D5FE962200238B49864800F037
:101308009DFC8A4CFF238DF80030894DB0238DF861
:1013180001306946F02320468DF8023000F0A2FC27
:101328002B6800212370204600F0ACFC814A9621EE
:101338007D4800F056FD2046FFF72FFB7E4B01212C
:10134800188801F093FE7D4B0221188801F08EFE6B
:1013580001F004FD4FF4165101F0E6FC01F0FEFC2B
:10136800774901F006FA01F0A5FE0020FEF734FFE8
:101378002B4608B1286001E001222A6019686B48F1
:10138800FE292170CCBF0021012100F07BFC01F077
:1013980091FE0120FEF720FF6A4D6B4A2B68106012
:1013A8009842A4BF03F1FF33136001F083FE0220CB
:1013B800FEF712FF654E664C306001F07BFE03209D
:1013C800FEF70AFF206001F075FE0420FEF704FF17
:1013D800604B3268186022B9216811B908B9FF2139
:1013E800196018782178534B5B4C1A7058709970B3
:1013F80001F060FE0520FEF7EFFE30B901F05AFE5D
:101408000620FEF7E9FE404204E001F053FE062004
:10141800FEF7E2FE206022684F4B0C3202DA6FF0D2
:101428000B0204E04D4A12680D2A01DD0D221A60F4
:1014380001F040FE0720FEF7CFFE494B0128CABF46
:10144800012218601A604749474A484801F0C2F823
:10145800474A4849454801F0BDF840494648FFF722
:101468001FFF33494548FFF71BFF37493E48FFF741
:1014780017FF36494248FFF713FF35494148FFF740
:101488000FFF34494048FFF70BFF33493F48FFF748
:1014980007FF33493E48FFF703FF3E493E4801F046
:1014A80050FADFF8A08000262B68F7B29F421ADABC
:1014B8003A49394801F084FA3949142303FB0711E2
:1014C8003548043101F078FA3449334801F078FAA4
:1014D800D8F80030013B9F4203DA32492E4801F028
:1014E8006FFA0136E0E730492B4801F069FA082322
:1014F800ADF800302D4B0422274901932C486B4648
:1015080001F00EF8206802F04BF801F03FFB02B042
:10151800BDE8F081B4030020B8030020E00B0020F0
:10152800D00B0020A83D0A08B7050020C80B0020F2
:101538001803002080070020040300203403002043
:10154800363E0A083803002090070020A405002032
:10155800DC030020300300201C03002014030020BB
:10156800AC050020E9010A084D3E0A08B1250A0821
:101578005A3E0A08A90E0A08633E0A08693E0A0884
:10158800CD410A08743E0A08763E0A08783E0A08E1
:10159800813E0A0871410A08440800208B3E0A0867
:1015A80058080020153E0A088D3E0A08AF000A08B0
:1015B8008F3E0A0810B5044600F07AFE2388C01A48
:1015C80080B23128F8D910BD2DE9F04F8C4AD36884
:1015D80043F08073D3608B4B1A6842F001021A60A3
:1015E80000225A60884A5469536944F0800423F001
:1015F80080035361417A027B521AD2B20168427267
:10160800497821B10A44FF2AA8BFFF22D1B2C27B80
:101618004A43C2F3072A72B671B6DFF8F0C1794AB5
:10162800794D00214FF0040E51606646E146294687
:101638006246F0464768002F40F3DB8090F808B018
:10164800C77ACBEB0707077290F809B0077BCBEB9B
:101658000707477290F80AB0477BCBEB07078772FA
:101668000727DCF800B0BBF18D0FFAD91AF0800F0C
:101678006C61C6F800E005D0D9F800B0BBF1600F86
:10168800FAD904E0D9F800B0BBF1190FFAD94FEA3A
:101698004A0A013F4B615FFA8AFAE2D117688D2F37
:1016A800FCD91AF0800F6C61C6F800E003D0176807
:1016B800602FFCD902E01768192FFCD94B61076825
:1016C8003F7837B190F808A05744FF2FA8BFFF27ED
:1016D800FFB290F80EA007FB0AF74FF0070AC7F30E
:1016E8000727D2F800B0BBF18D0FFAD917F0800F99
:1016F8006C61C6F8008005D0D2F800B0BBF1600F6D
:10170800FAD904E0D2F800B0BBF1190FFAD97F007A
:10171800BAF1010A4B61FFB2E3D1D2F800A0BAF1E5
:101728008D0FFAD93F066C61C6F800E003D517683B
:10173800602FFCD902E01768192FFCD94B610768A4
:10174800BF7837B190F80AA05744FF2FA8BFFF27EA
:10175800FFB290F810A007FB0AF74FF0070AC7F38B
:101768000727D2F800B0BBF18D0FFAD917F0800F18
:101778006C61C6F8008005D0D2F800B0BBF1600FEC
:10178800FAD904E0D2F800B0BBF1190FFAD97F00FA
:10179800BAF1010A4B61FFB2E3D1D2F800A0BAF165
:1017A8008D0FFAD93F066C61C6F800E003D51768BB
:1017B800602FFCD902E01768192FFCD94B61076824
:1017C80090F811A0BA444768C0F800A0013F4760EC
:1017D8009AF8017037B190F809A05744FF2FA8BFB5
:1017E800FF27FFB290F80FA007FB0AFACAF3072AEF
:1017F80020E762B661B6034B5868BDE8F08F00BFBA
:10180800F0ED00E0001000E000000240041000E0ED
:1018180030B5174B4FF480751A78013202F0070281
:1018280012F0010F1A700CBF00238023910744BFE8
:1018380043F04003DBB2520748BF43F020031033A4
:1018480000F10A01DAB20D300B791BB195FBF3F305
:101858000133DBB203FB02F401F8013F241201F863
:10186800034C0BB1013B0B708842EDD130BD00BF7A
:10187800B003002010B586B002921A780446807C26
:101888008DF812205A789B78012801918DF8132041
:101898008DF8143003D101A8FFF7BAFF0CE000233C
:1018A8008DF811308DF810308DF80F308DF80E301E
:1018B8008DF80D308DF80C30032304F120008DF8DD
:1018C8001530FFF777FE01A8FFF77EFE00F0F0FC69
:1018D800208406B010BD10B586B002921A7804466E
:1018E800807C8DF812205A789B78012801918DF818
:1018F80013208DF8143003D101A8FFF789FF0CE0FD
:1019080000238DF811308DF810308DF80F308DF8D8
:101918000E308DF80D308DF80C30002304F12000C6
:101928008DF81530FFF746FE01A8FFF74DFE00F0D1
:10193800BFFC208406B010BD70B57C4B86B0002675
:101948001E6000F0DDFC4FF69C73794C022063802A
:101958004FF6FF7306ADA380267000F0B3FD45F87F
:10196800046D32463146284600F092FC059B1E2B3A
:1019780004D10323237011236680A3806D4C6E4B22
:1019880020466E4940F8043B00F0AEFF6C4B6D49B1
:10199800636104F1180000F0A7FF6B4B6B49A36269
:1019A80004F12C0000F0A0FF694B6A49E36304F1DD
:1019B800400000F099FF684B6849236504F1540022
:1019C80000F092FF664B6749636604F1680000F017
:1019D8008BFF654B6549A36704F17C0000F084FF29
:1019E800634B6449C4F88C3004F1900000F07CFF2C
:1019F800614B6249C4F8A03004F1A40000F074FF00
:101A08005F4A6049002001F0C3FB5F495F4800F06E
:101A18006BFF5B4A5E495D4801F0BAFB00F050FC81
:101A28005C4B18605C4B5D4819785D4B00681A7810
:101A38005C4B187059709A70FF2300228DF80E3095
:101A48008DF811308DF812308DF814308DF815306E
:101A58008DF8163004AB8DF808208DF809208DF824
:101A68000A208DF80C208DF80D208DF81020009399
:101A780002AA03AB10214C48019500F045FA4B49E6
:101A88004B48FEF71FFF4B494B48FEF71BFF4B49DE
:101A98004B48FEF717FF4B494B48FEF713FF4B49DE
:101AA8004B48FEF70FFF4B494B48FEF70BFF4B49DE
:101AB8004B48FEF707FF4B494B48FEF703FF3A4BED
:101AC8004A4A03F1300153F8040B8B4242F8040BE5
:101AD800F9D100232A46102145488DF814308DF895
:101AE80015308DF8163000F07CF9424B30211A7809
:101AF8002F4B01FB0233404A591853F8040B8B4211
:101B080042F8040BF9D100232A4610213B488DF8EE
:101B180014308DF815308DF8163000F062F9384918
:101B28003848FEF7E2FE06B070BD00BFC00B0020CB
:101B38000C09002058080020C5010A089C3E0A0824
:101B480099120A08A43E0A0805070A08B93E0A08B5
:101B580021020A08C13E0A0869070A08C63E0A089F
:101B68009D020A08CD3E0A0865050A08DB3E0A08F8
:101B7800F5110A08E43E0A0815120A08E93E0A089F
:101B8800AC030020A5010A085A410A0844080020AD
:101B980063280A087C070020DC030020A405002035
:101BA8003003002080070020D6070020483F0A089D
:101BB800100A002088400A08400A0020C83F0A0886
:101BC800700A0020C8400A08A00A002048400A08F5
:101BD800D00A002008400A08000B0020083F0A0825
:101BE800300B0020883F0A08600B0020900B002073
:101BF8004209002094070020140800201209002040
:101C0800D03D0A08A1070020002370B50370437077
:101C1800837092B1054601F10B040E3114F8016F7F
:101C28003EB1E3782BB1013306FB033353431B0C5E
:101C38002B708C4205F10105F0D170BDF8B5144642
:101C48001E1E0F460546D8BF16460368D8BF002497
:101C58009B6804EB44049847391969606E6128460B
:101C6800F8BD000010B5064B1B683BB10C784878EE
:101C78008A781C7358739A739B68F6E710BD00BF87
:101C8800E00B0020034B1B6813B199749B68FBE7BA
:101C9800704700BFE00B002070B50C4C0646236867
:101CA8005A1C8B42226010DB00F00AFB2268084DA8
:101CB8004FF47A7353432A68801AB3FBF0F37380A6
:101CC8000023236000F0FCFA286070BDD40B0020CC
:101CD800D80B00202DE9F74F05460F46194C6B68C5
:101CE80033B100F0E5FA2368C01A6B689842F6D35E
:101CF80000F0DEFA134B00261860134B1C68D4B1B1
:101D08006B88D4F804A0632BD4F814B0236894F833
:101D18001280214698BFA6743A4601A8D3F80490C9
:101D2800FFF772FF204601AB5A465146C84784F870
:101D38001280A468E3E719212846FFF7ADFF03B036
:101D4800BDE8F08FDC0B0020E00B002070B50446E6
:101D58000E4600F0B5FA054600F0B2FA401BB04254
:101D680007D2012000F014FC21782046FFF7B2FFCB
:101D7800F2E770BD08B500F0C3FA044BFF221A70F1
:101D880000225A8040F6C4125A6008BDC80B0020D1
:101D980000F0B6BA30B504781D1C18BF01251CB177
:101DA8005C4305EB2424E4B20470087818B1584366
:101DB80005EB2020C0B20870117819B14B4305EB30
:101DC8002323D9B2117030BD02784A43121202702F
:101DD80042784A4312124270827851430912817044
:101DE800704710B500238B4200F103000ADA14781B
:101DF800013300F8034C547800F8024C947800F84A
:101E0800014CF0E710BDF7B506460F461D46FF2307
:101E18008DF80630F0238DF804208DF80530002465
:101E2800BC420CDA04EB4401314401A800F076F915
:101E38009DF8042001342A448DF80420F0E703B00B
:101E4800F0BD2DE9F0438B42079C14D292F800E0D4
:101E5800A578277884F800E092F801E0667884F89D
:101E680001E092F802E095700D4619462B4684F879
:101E780002E01770567092F800C092F801E092F8EC
:101E88000280A2782778C8EB02026678D5015A1A30
:101E9800CCEB0707CEEB060692B2FF01F6010AB1BA
:101EA80012B200E0012297FBF2F796FBF2F695FBDF
:101EB800F2F27F0076005200BFB2B6B292B24FEA99
:101EC8000C2C4FEA0E2E4FEA08248B421AD301EB52
:101ED80041084FEA2C2900EB080500F808904FEA62
:101EE8002E2885F80180BC444FEA2428B6441444BF
:101EF800013185F802801FFA8CFC1FFA8EFEA4B20D
:101F080089B2E2E7BDE8F0832DE9F04F1E460324CD
:101F1800B1FBF4FB4B0093FBF4F4137885B08DF818
:101F2800083053780F468DF8093093780DF10C0876
:101F38008DF80A30337802AA8DF80C307378CDF812
:101F480000808DF80D30B37800218DF80E305B4697
:101F58000E9DDDF83C90FFF774FF3378A4B28DF83E
:101F68000830737802AA8DF80930B37859468DF88D
:101F78000A302B788DF80C306B788DF80D30AB78F3
:101F8800CDF800808DF80E302346FFF75AFF2B78E6
:101F980002AA8DF808306B7821468DF80930AB78A5
:101FA8008DF80A3099F800308DF80C3099F8013026
:101FB8008DF80D3099F80230CDF800808DF80E308C
:101FC8007B1E9BB2FFF73DFF05B0BDE8F08F70B5F3
:101FD8001646044601EB41014518AC4205D020469F
:101FE8003146FFF7F1FE0334F7E770BDD243D2B2B2
:101FF800FFF7EDBFFFF7FABFF7B51711054607EB77
:1020080047000C186678085C94F802E012F00F029A
:102018008DF805008DF806608DF807E027D09DF84B
:1020280020C0BCF1000F22D00F2F00D0E11C1201FC
:10203800544291F801C08F78E4B2097802FB0CFC95
:102048005743604366434A4304FB0EF4CCF3072C22
:10205800C7F30727001200EB22220CEB262607EB1A
:1020680024248DF805208DF806608DF80740FF2B95
:1020780007D00DF107020DF106010DF10500FFF77C
:1020880089FE28469DF806209DF807309DF8051022
:102098006A702970AB7003B0F0BDF0B50139441E09
:1020A80000232F3014F8015F11F8016FB54216D0E4
:1020B8003CBF0135257025780E783CBF0133DBB273
:1020C800AE420AD26E1EF6B226700F780133B742BE
:1020D80038BF023DDBB238BF2570934201D284423B
:1020E800E0D1F0BD00F00CB930B504781D1C18BF64
:1020F80001251CB15C4305EB2424E4B20470087884
:1021080018B1584305EB2020C0B20870117819B1F6
:102118004B4305EB2323D9B2117030BDF7B50D46FB
:10212800037846788478D800C0B25522424303F039
:10213800400113F0800FC2F3072203F0200301F0DF
:10214800FF0728D179B903F0FF013BB9D3438DF8D4
:1021580006208DF805308DF807104CE0AB238DF87C
:10216800053055320BE003F0FF076BB9AA2101FBDC
:1021780000F31B12C3F1AB038DF80530553A8DF807
:1021880006208DF8077036E000238DF80530D3431C
:102198008DF806302DE0B9B903F0FF0173B98DF859
:1021A8000510AA2202FB00F3C3F30723C3F1AB0215
:1021B80055338DF806208DF807301CE08DF8052082
:1021C8008DF80670D24314E003F0FF0143B902F121
:1021D80055038DF805308DF80610C2F1AB0208E002
:1021E800A2F155038DF8053000238DF80630C2F1B1
:1021F80055028DF80720FF2E1CD033460DF107023B
:102208000DF106010DF10500FFF76EFFF243D2B2A2
:1022180052439DF80530C2F3072213448DF8053068
:102228009DF8063013448DF806309DF807301A449F
:102238008DF80720FF2C0ED004FB04F31B12002C92
:1022480018BF01330DF10702DBB20DF106010DF1E4
:102258000500FFF749FF9DF805302B709DF8063003
:102268006B709DF80730AB7003B0F0BD00F048B854
:1022780000F046B800F044B800F042B800F040B8AA
:1022880008B5024B1B681B6B019308BDD0010608FB
:1022980008B5024B1B68DB6E019308BDB801060840
:1022A80008B5024B1B685B68019308BD9C010608D2
:1022B80008B5024B1B681B69019308BD9C01060801
:1022C80008B5024B1B685B69019308BD9C010608B1
:1022D80008B5024B1B689B6A019308BD9C01060860
:1022E80008B5024B1B68DB6A019308BD9C01060810
:1022F80008B5024B1B681B6B019308BD9C010608BF
:1023080008B5024B1B681B68019308BDB00106089D
:1023180008B5024B1B689B68019308BDB00106080D
:1023280008B5024B1B68DB68019308BDB0010608BD
:1023380008B5024B1B685B69019308BDB00106082C
:1023480008B5024B1B681B6E019308BDAC0106085B
:1023580008B5024B1B685B6E019308BDAC0106080B
:1023680008B5024B1B689B6E019308BDAC010608BB
:1023780008B5024B1B68DB6E019308BDAC0106086B
:1023880008B5024B1B681B6F019308BDAC0106081A
:1023980008B5024B1B685B6F019308BDAC010608CA
:1023A80008B5034B1B68D3F88030019308BD0000C3
:1023B800AC01060808B5024B1B68DB69019308BD30
:1023C800B401060808B5024B1B681B6A019308BDD7
:1023D800B401060808B5024B1B689B69019308BD48
:1023E800C401060808B5024B1B685B6A019308BD67
:1023F800C401060808B5024B1B689B6A019308BD17
:10240800C401060808B5024B1B68DB6A019308BDC6
:10241800C401060808B5024B1B681B6B019308BD75
:10242800C401060808B5024B1B685B6B019308BD25
:10243800C401060808B5024B1B689B6B019308BDD5
:10244800C401060808B5024B1B681B6C019308BD44
:10245800C401060808B5024B1B681B68019308BD38
:10246800D801060808B5024B1B685B68019308BDD4
:10247800D801060808B5024B1B681B69019308BD03
:10248800D801060808B5024B1B685B69019308BDB3
:10249800D801060808B5024B1B689B69019308BD63
:1024A800D801060808B5024B1B68DB69019308BD13
:1024B800D801060808B5024B1B681B6A019308BDC2
:1024C800D801060808B5024B1B685B68019308BD74
:1024D800A401060808B5024B1B685B69019308BD97
:1024E800A401060808B5034B1B68D3F89030019384
:1024F80008BD0000A401060808B5034B1B68D3F803
:102508009C30019308BD0000A401060808B5034BE0
:102518001B68D3F8A830019308BD0000A401060881
:1025280008B5024B1B681B68019308BDCC0106085F
:1025380008B5024B1B685B68019308BDCC0106080F
:1025480008B5024B1B68DB6B019308BDCC0106087C
:1025580008B5024B1B681B69019308BDC801060832
:1025680008B5024B1B681B68019308BDA00106084B
:1025780008B5024B1B685B68019308BDA0010608FB
:1025880008B5024B1B689B68019308BDA0010608AB
:102598000021FFF79FBF10B58368044613B10322DB
:1025A80001469847204610BD10B588B004466846D5
:1025B80000F09AF9694604A800F0B8F904A8A04701
:1025C800044604A800F049F9684600F046F9204698
:1025D80008B010BDF0B507460E46154685B0102464
:1025E80022460021684601F03CFA0022694610465E
:1025F800ADF80040029703960195FFF799FF05B0E3
:10260800F0BD7047F8B5064615460C468F18BC4213
:1026180006D0336814F8011B9B6830469847F6E7E4
:102628002846F8BD0022007CFFF78ABE0021007C06
:10263800FFF78EBE0021007CFFF792BE0021007CD0
:10264800FFF796BE0021007CFFF79ABE10B504463E
:10265800FDF71FFD204610BD10B5044608464FF48F
:102668007A73A360044B0021207461602360FFF734
:1026780097FE204610BD00BF10410A080021007CCB
:10268800FFF786BE704710B50446FDF702FD2046E9
:1026980010BDF8B50F4600F10806051D002416F810
:1026A800011D0A22384600F098F8AE42044407D0CB
:1026B800002CF4D02E21384600F04CF80444EEE704
:1026C8002046F8BD10B59DF8084044EA032343EAC4
:1026D800024242EA016104234160037510BD000013
:1026E80037B5044D05609DF818500095FFF7EAFFCF
:1026F80003B030BD38410A08014A024B1A607047DE
:10270800FF410A08E40B0020F8B506460D468F186D
:102718000024BD420CD0336815F8011B9B68304675
:102728009847002801DB0444F3E7002C08BF04465F
:102738002046F8BD70B505460C46084649B101F07B
:1027480003FA2B68024621462846BDE87040DB683C
:10275800184770BD03689B68184738B50D210546B2
:10276800FFF7F8FF0A2104462846FFF7F3FF204445
:1027780038BD38B50546FFF7DDFF04462846FFF7A4
:10278800ECFF204438BD012A98BF0A2230B50B4619
:102798008BB000218DF824100DF12304B3FBF2F562
:1027A80005FB1233DBB2092B94BF30333733DBB26E
:1027B800214604F801392B46002DEFD1FFF7BAFF67
:1027C8000BB030BD10B422B90368C9B29B6810BC05
:1027D8001847D2B210BCFFF7D6BFFFF7F3BF10B54A
:1027E800044630B101F06EF990FBF4F303FB1400DA
:1027F80010BD10BD10B50446FFF7CDFE204610BD34
:10280800034800238360034A034900F0C1BC00BFAA
:10281800E80B0020AC030020FD270A08704710B51C
:102828000446FDF736FC204610BD000070B504468E
:102838000E46074B0025036040F80C5FFFF720FDAC
:1028480030462671FFF7B6FDA560204670BD00BF73
:1028580030420A080079FFF7B5BD10B50446006894
:10286800FFF786FE204610BD10B50446006808B183
:10287800FFF77EFE00232360A360636010BD38B5B8
:1028880004460D4600680131FFF77AFE10B184E86E
:102898002100012038BD10B50368044613B1436810
:1028A8008B4207D22046FFF7EAFF20B1A3680BB995
:1028B80022681370012010BD70B50E4611460446FB
:1028C8001546FFF7E8FF18B92046FFF7CDFF09E0E6
:1028D8002A463146A560206801F0B8F82268A36846
:1028E8000021D154204670BD38B50023044603604A
:1028F8004360836003730D4639B1084601F024F93B
:10290800294602462046FFF7D7FF204638BD8842B1
:1029180010B50B46044607D0096819B19A68FFF745
:10292800CBFF01E0FFF7A0FF204610BD10B504461D
:1029380000230360436083600373FFF7E8FF2046CA
:1029480010BD38B505460C4641B1084601F0FCF803
:10295800214602462846FFF7AFFF01E0FFF784FF54
:10296800284638BD10B5044600238AB0236063604A
:10297800A3602373084601A900F0A1FA01A9204623
:10298800FFF7DFFF20460AB010BD70B504460E46BB
:1029980009B9002070BD6AB18368D5182946FFF7C8
:1029A8007AFF0028F5D02068A3683146184401F062
:1029B800C3F8A560012070BD8A680968FFF7E5BF04
:1029C80038B505460C46084641B101F0BDF8214628
:1029D80002462846BDE83840FFF7D7BF38BD10B5D6
:1029E8008A6809680446FFF7D0FF10B92046FFF748
:1029F8003BFF204610BD10B5144683688A689B1AB1
:102A0800A3420AD3006858B1096841B1204401F0D3
:102A1800A3F8B0FA80F0400910BD002010BD0846A8
:102A280010BD82688B689A4202D30022FFF7E3BF89
:102A38000020704770B50E469AB191B185689D42E5
:102A480002D800230B7070BD541EED1AAC4228BF8B
:102A58002C46016822461944304601F092F80023BA
:102A6800335570BD2DE9F0411C469A4288BF134684
:102A78000E46154688BF25460D4988BF1C460746A1
:102A8800FFF732FFB1688D420FD88C4228BF0C4641
:102A98003368002213F804801A55316838462944EF
:102AA800FFF74FFF336803F804803846BDE8F0812C
:102AB8005A410A0810B504468B68FFF7D3FF204631
:102AC80010BD006808B100F0AFBF704730B54FF6D1
:102AD8009C7545804FF6FF75002400290470858099
:102AE80009DD013999420AD232F8113044808380D5
:102AF8000123037030BD04BF02230370418030BD41
:102B080070B50D46164686B01A46002302930C9BF4
:102B1800044601930B9B3146009328460A9BFFF716
:102B2800F5FC33462A46014604A8FFF7CFFF064BBB
:102B38000498BDF81420186020469A801A689B886B
:102B48002260A38006B070BDF80B00204FF69C737E
:102B580037B50D4C002563804FF6FF732846A380D8
:102B68002570FFF7AFFC02A840F8045D2A46294605
:102B7800FFF78EFB019B1E2B04D103232370112327
:102B88006580A38003B030BDF80B002010B509495B
:102B9800044600F0F7FE60B90749204600F010FF30
:102BA80038B90649204600F04FFD00F013FF044BEA
:102BB800186010BD000040C1000060410000614580
:102BC800040C0020024B1A68024B1A60704700BFC1
:102BD80040030020000C0020704741747047007CBF
:102BE800FFF730BC007CFFF705BC007CFFF712BC88
:102BF800007CFFF707BC007CFFF714BC10B5044647
:102C0800FDF747FA204610BD70B5457C04460E46D0
:102C180025B9007CFFF716FC002805DD3146207C2D
:102C2800BDE87040FFF7DEBB284670BD10B504460E
:102C380008461146002262604FF47A72A260054A83
:102C480020742260012262741A46FFF7C3FB2046F3
:102C580010BD00BF6C420A08007CFFF7EBBB000008
:102C680038B50C4D296811F0010411D12846FDF73B
:102C780012FA68B1084A2146084B0948FFF7D6FFFF
:102C88002846FDF70DFA074A0749054800F080FA7B
:102C9800034838BDA00C0020A40C00201C0C002008
:102CA800080C0020AC030020E12B0A08417470478F
:102CB80070470021007CFFF7EDBB0121007CFFF786
:102CC800E9BB007CFFF7DEBB007CFFF7D3BB38B560
:102CD8000446007C0D46FFF7D5FB002801DC607C2C
:102CE80020B12946207CFFF7DDFB012038BD007CA0
:102CF800FFF7E0BB10B50446FDF7CBF9204610BD41
:102D080010B50446002363604FF47A73A360054B43
:102D1800084623600123217463741146FFF79AFB68
:102D2800204610BD9C420A080022007CFFF79ABB8F
:102D380010B504461422002100F093FE054B2046EE
:102D48006360054BE36040F20113238181232382F2
:102D580010BD00BFAD0D00202C0D002030B50E4D6C
:102D680087B001A8FFF7E4FF296811F0010410D12A
:102D78002846FDF790F960B101AA21460748FFF7F8
:102D8800BFFF2846FDF78CF9054A0649034800F0BD
:102D9800FFF9024807B030BD280D0020B00E002012
:102DA800AC030020B92C0A0810B5044614220021EF
:102DB80000F057FE054B20466360054BE36040F288
:102DC800011323818123238210BD00BF600F0020DF
:102DD800C80E002010B50E4C86B001A8FFF7E4FF1E
:102DE8002368DB0710D42046FDF755F960B101AA26
:102DF80001210848FFF784FF2046FDF751F9064AEC
:102E08000649044800F0C4F9024806B010BD00BFE6
:102E1800C40E00204C0F0020AC030020B92C0A0877
:102E28007047002211461046FFF792BB0348044B37
:102E3800044A0549036000F0ABB900BF64100020E4
:102E4800CC420A08AC030020292E0A0810B5044613
:102E580000F07AFE013823182046984206D20278FC
:102E6800197800F8011B03F80129F6E710BD70B5C1
:102E78000C46911E222920D82546294610B92344FC
:102E880030220EE0B0FBF2F602FB1600C1B20928B0
:102E980005F8011B94BF3031573105F8011C304645
:102EA800EBE7994202D201F8012BFAE7002320460A
:102EB8000B70FFF7CBFF204670BD002070BD38B502
:102EC800031E0C4615460BDAB3F1004F4FF02D02E6
:102ED80014BF5842184601230A702A46194400E0D4
:102EE8000123FFF7C4FF204638BD000008B5144B86
:102EF80033B1FFF733FF03681B699847002816DCD6
:102F0800104B33B1FFF7ACFE03681B6998470028E4
:102F180010DC0D4B0BB1AFF300800C4B7BB1FFF70E
:102F280059FF03681B699847002806DC08BDAFF302
:102F38000080E5E7AFF30080EBE7AFF3008008BD62
:102F48000000000000000000000000000000000079
:102F580008B5FFF7CBFFFFF7B3F9014B186008BDC1
:102F6800701000200248034A0349121A00F06EBD8F
:102F7800004002400440024090440A0807B500237C
:102F880000931A466FF07701FFF7B6FA03B05DF8C1
:102F980004FB000007B543880A2B08D0502B09D141
:102FA800094B1B683BB103B05DF804EB1847FFF70A
:102FB800E5FF06E0002300931A466FF07701FFF75C
:102FC8009BFA03B05DF804FB6810002038B5104C7C
:102FD800104D2368AB42104B0CBF012200221A701F
:102FE80002D0FFF7BFFF2560FFF75AF900F042FD56
:102FF8000A4B1BB1FFF754F9AFF3008000210748D3
:10300800FFF79EFABDE8384000210548FFF76ABA85
:10301800004002401E1C279A6C100020000000008F
:103028009D2F0A0810B504460F48FFF713FC28B176
:10303800A4F10D03022B01D8002010BD00F04EF8BA
:10304800FFF71CFB08B1012CF6D9FFF709FEFFF7C3
:1030580003FE18B1A4F11203012BEDD9172C8CBF74
:103068000020012010BD00BFAC100020172838B583
:1030780004460D460AD8FF2908D0FFF7D3FF28B128
:1030880029462046BDE83840FFF742B938BD10B59B
:103098000446FFF745F90438C0B2012808D920468C
:1030A800FFF7C0FF20B12046BDE81040FFF740B948
:1030B800002010BD10B5074C2368DB0708D4204654
:1030C800FCF7E9FF20B1FFF703F92046FCF7E8FF1A
:1030D800014810BD741000207810002038B50B4D41
:1030E800296811F001040FD12846FCF7D4FF58B124
:1030F80021460748FFF7B0FA2846FCF7D1FF054AF2
:103108000549034800F044F8014838BD7C10002008
:1031180080100020AC0300200B260A0813B5084CC9
:1031280000231A46194600932046FFF7D9FA20468D
:10313800044A054902B0BDE8104000F029B800BFB4
:1031480094100020AC0300208D260A0870B50C4CA2
:103158000C4E0D4D00212046FFF768FB20460B4C16
:103168003246294600F014F801212046FFF75EFB9D
:10317800324629462046BDE8704000F009B800BF35
:10318800AC100020AC03002025280A08BC10002041
:103198000B460146184600F04BBC0000244B1A6849
:1031A800D0075CBF01221A60224B1A68D1075CBFA6
:1031B80001221A60204B1A68D2075CBF01221A60EC
:1031C8001E4B1A68D0075CBF01221A601C4B1A6894
:1031D800D1075CBF01221A601A4B1A68D2075CBF7C
:1031E80001221A60184B1A68D0075CBF01221A60C6
:1031F800164B1A68D1075CBF01221A60144B1A6873
:10320800D2075CBF01221A60124B1A68D0075CBF54
:1032180001221A60104B1A68D1075CBF01221A609C
:103228000E4B1A68D2075CBF01221A60704700BFB4
:10323800F8100020F4100020F0100020EC100020FE
:10324800E8100020E4100020E0100020DC1000202E
:10325800D8100020D4100020D0100020CC1000205E
:10326800184B1A68D1075CBF01221A60164B1A68FE
:10327800D2075CBF01221A60144B1A68D0075CBFE2
:1032880001221A60124B1A68D1075CBF01221A602A
:10329800104B1A68D2075CBF01221A600E4B1A68DD
:1032A800D0075CBF01221A600C4B1A68D1075CBFBB
:1032B80001221A600A4B1A68D2075CBF01221A6001
:1032C800704700BF181100201411002010110020B1
:1032D8000C1100200811002004110020001100200A
:1032E800FC100020184B1A68D1075CBF01221A6035
:1032F800164B1A68D2075CBF01221A60144B1A6871
:10330800D0075CBF01221A60124B1A68D1075CBF54
:1033180001221A60104B1A68D2075CBF01221A609A
:103328000E4B1A68D0075CBF01221A600C4B1A6852
:10333800D1075CBF01221A600A4B1A68D2075CBF2A
:1033480001221A60704700BF381100203411002094
:10335800301100202C1100202811002024110020F9
:10336800201100201C110020244B1A68D0075CBFD4
:1033780001221A60224B1A68D1075CBF01221A6029
:10338800204B1A68D2075CBF01221A601E4B1A68CC
:10339800D0075CBF01221A601C4B1A68D1075CBFBA
:1033A80001221A601A4B1A68D2075CBF01221A6000
:1033B800184B1A68D0075CBF01221A60164B1A68AE
:1033C800D1075CBF01221A60144B1A68D2075CBF90
:1033D80001221A60124B1A68D0075CBF01221A60DA
:1033E800104B1A68D1075CBF01221A600E4B1A688D
:1033F800D2075CBF01221A60704700BF6811002025
:1034080064110020601100205C1100205811002078
:1034180054110020501100204C11002048110020A8
:1034280044110020401100203C11002080F0004091
:1034380002E000BF81F0004142001FBF5FEA410384
:1034480092EA030F7FEA226C7FEA236C6AD04FEA84
:103458001262D2EB1363C1BFD218414048404140C9
:10346800B8BF5B42192B88BF704710F0004F40F47B
:10347800000020F07F4018BF404211F0004F41F497
:10348800000121F07F4118BF494292EA030F3FD063
:10349800A2F1010241FA03FC10EB0C00C3F1200376
:1034A80001FA03F100F0004302D5494260EB400005
:1034B800B0F5000F13D3B0F1807F06D340084FEA70
:1034C800310102F10102FE2A51D2B1F1004F40EB65
:1034D800C25008BF20F0010040EA030070474900CD
:1034E80040EB000010F4000FA2F10102EDD1B0FA98
:1034F80080FCACF1080CB2EB0C0200FA0CF0AABF8D
:1035080000EBC25052421843BCBFD040184370472A
:1035180092F0000F81F4000106BF80F40000013230
:10352800013BB5E74FEA41037FEA226C18BF7FEA07
:10353800236C21D092EA030F04D092F0000F08BF49
:103548000846704790EA010F1CBF0020704712F030
:103558007F4F04D1400028BF40F00040704712F16F
:1035680000723CBF00F50000704700F0004343F0D4
:10357800FE4040F4000070477FEA226216BF08460A
:103588007FEA23630146420206BF5FEA412390EACD
:10359800010F40F4800070474FF0000304E000BFC3
:1035A80010F0004348BF40425FEA000C08BF704774
:1035B80043F0964301464FF000001CE050EA010238
:1035C80008BF70474FF000030AE000BF50EA01024D
:1035D80008BF704711F0004302D5404261EB41013A
:1035E8005FEA010C02BF84460146002043F0B6435F
:1035F80008BFA3F18053A3F50003BCFA8CF2083A84
:10360800A3EBC25310DB01FA02FC634400FA02FC8C
:10361800C2F12002BCF1004F20FA02F243EB020093
:1036280008BF20F00100704702F1200201FA02FCF5
:10363800C2F1200250EA4C0021FA02F243EB0200E8
:1036480008BF20EADC7070474FF0FF0C1CEAD0522C
:103658001EBF1CEAD15392EA0C0F93EA0C0F6FD0ED
:103668001A4480EA010C400218BF5FEA41211ED0CB
:103678004FF0006343EA501043EA5111A0FB0131B7
:103688000CF00040B1F5000F3EBF490041EAD3718C
:103698005B0040EA010062F17F02FD2A1DD8B3F108
:1036A800004F40EBC25008BF20F00100704790F077
:1036B800000F0CF0004C08BF49024CEA502040EAC9
:1036C80051207F3AC2BFD2F1FF0340EAC25070478F
:1036D80040F400004FF00003013A5DDC12F1190FCD
:1036E800DCBF00F000407047C2F10002410021FA3F
:1036F80002F1C2F1200200FA02FC5FEA310040F157
:10370800000053EA4C0308BF20EADC70704792F0CF
:10371800000F00F0004C02BF400010F4000F013A07
:10372800F9D040EA0C0093F0000F01F0004C02BF02
:10373800490011F4000F013BF9D041EA0C018FE771
:103748000CEAD15392EA0C0F18BF93EA0C0F0AD077
:1037580030F0004C18BF31F0004CD8D180EA01009D
:1037680000F00040704790F0000F17BF90F0004F36
:10377800084691F0000F91F0004F14D092EA0C0F18
:1037880001D142020FD193EA0C0F03D14B0218BFAB
:10379800084608D180EA010000F0004040F0FE40F1
:1037A80040F40000704740F0FE4040F4400070478D
:1037B8004FF0FF0C1CEAD0521EBF1CEAD15392EA0C
:1037C8000C0F93EA0C0F69D0A2EB030280EA010CFC
:1037D80049024FEA402037D04FF0805343EA111195
:1037E80043EA10130CF000408B4238BF5B0042F1F3
:1037F8007D024FF4000C8B4224BF5B1A40EA0C0098
:10380800B3EB510F24BFA3EB510340EA5C00B3EBC9
:10381800910F24BFA3EB910340EA9C00B3EBD10FB7
:1038280024BFA3EBD10340EADC001B0118BF5FEA09
:103838001C1CE0D1FD2A3FF650AF8B4240EBC25032
:1038480008BF20F0010070470CF0004C4CEA5020F3
:103858007F32C2BFD2F1FF0340EAC250704740F442
:1038680000004FF00003013A37E792F0000F00F034
:10387800004C02BF400010F4000F013AF9D040EAB2
:103888000C0093F0000F01F0004C02BF490011F446
:10389800000F013BF9D041EA0C0195E70CEAD1533E
:1038A80092EA0C0F08D142027FF47DAF93EA0C0F25
:1038B8007FF470AF084676E793EA0C0F04D14B0209
:1038C8003FF44CAF08466EE730F0004C18BF31F0BB
:1038D800004CCAD130F000427FF45CAF31F00043B5
:1038E8007FF43CAF5FE700BF4FF0FF3C06E000BF4E
:1038F8004FF0010C02E000BF4FF0010C4DF804CD71
:103908004FEA40024FEA41037FEA226C18BF7FEA80
:10391800236C11D001B052EA530C18BF90EA010F82
:1039280058BFB2EB030088BFC81738BF6FEAE17011
:1039380018BF40F0010070477FEA226C02D15FEAAD
:10394800402C05D17FEA236CE4D15FEA412CE1D019
:103958005DF8040B704700BF844608466146FFE7E0
:103968000FB5FFF7C9FF002848BF10F1000F0FBDC2
:103978004DF808EDFFF7F4FF0CBF012000205DF8BB
:1039880008FB00BF4DF808EDFFF7EAFF34BF012040
:1039980000205DF808FB00BF4DF808EDFFF7E0FFD9
:1039A80094BF012000205DF808FB00BF4DF808ED2A
:1039B800FFF7D2FF94BF012000205DF808FB00BF8D
:1039C8004DF808EDFFF7C8FF34BF012000205DF86F
:1039D80008FB00BF4FEA4002B2F1FE4F0FD34FF091
:1039E8009E03B3EB12620DD94FEA002343F0004364
:1039F80010F0004F23FA02F018BF404270474FF012
:103A08000000704712F1610F01D1420205D110F098
:103A1800004008BF6FF0004070474FF0000070474B
:103A28000A22002100F0A4B90A22002100F0A0B95E
:103A380010B5054C13462CB10A4601460220AFF3D7
:103A4800008010BD204610BD0000000010B5431EC8
:103A58000A44914204D011F8014B03F8014FF8E7EA
:103A680010BD03460244934202D003F8011BFAE753
:103A78007047000038B5124B05461C68A36BD3B9D4
:103A88001820FEF76DFD43F20E33A06303804AF65B
:103A9800CD33438041F2342383804EF26D63C3807B
:103AA8004DF6EC630381052343810B2383810122B7
:103AB8000023C0E90423A36B00221D615A6138BDAD
:103AC800A8030020194B10B51C68A36BD3B91820A4
:103AD800FEF746FD43F20E33A06303804AF6CD336A
:103AE800438041F2342383804EF26D63C3804DF6E8
:103AF800EC630381052343810B2383810122002387
:103B0800C0E90423A16B0A4C0B6948695C43094A64
:103B180002FB0040A3FB02230132034443F10003EC
:103B2800C1E9042323F0004010BD00BFA803002012
:103B38002DF451582D7F954C034611F8012B03F8AD
:103B4800012B002AF9D17047034613F8012B002AEC
:103B5800FBD1181A0138704730B582B1451E0139BA
:103B680015F8013F11F8014FA34206D1EC43144464
:103B7800E04201D0002BF3D11C46181B30BD104683
:103B880030BD034610B542B111F8014B013A03F8B4
:103B9800014B002CF7D11A4400E010BD934202D02B
:103BA80003F8014BFAE710BD174B2DE9F0411D68EA
:103BB8000646AC6D0F46FCB95020FEF7D1FCA8654F
:103BC8008460AB6D046044601C61DC60AB6D9C611B
:103BD8005C61AB6DDC629C62AB6D5C631C63AB6D5E
:103BE800DC639C63AB6D5C641C64AB6DDC649C64DF
:103BF800AB6D1C77AB6D5C62AA6D39463046BDE88B
:103C0800F041012300F002B8A8030020F0B548B93C
:103C1800106838B9F0BD17F8016B5EB1B542FAD13A
:103C28002BB1204604460F4614F8015BF3E71460F5
:103C38000370F0BD4DB915602846F0BD17F8016B4B
:103C4800B54207D0002EF9D11C4623460F4613F87B
:103C5800015BF3E715B10021217000E02B461360EA
:103C6800F0BD00002DE9F0470F4680463F48D0F8E8
:103C780000903D4615F8014B09EB0400407800F030
:103C8800080000F0FF0608B12F46F2E72D2C03D1FB
:103C9800BD1C7C78012603E02B2C04BF7C78BD1C5E
:103CA80013B1102B0AD15BE0302C57D1287800F0E3
:103CB800DF0058284DD16C7810230235002E14BF30
:103CC8004FF0004C6FF0004CBCFBF3FA002738466D
:103CD80003FB1ACC09EB040E9EF801E01EF0040F5A
:103CE80001D0303C0BE01EF0030E1BD0BEF1010FDB
:103CF8000CBF4FF0370E4FF0570ECEEB0404A34223
:103D080010DDB7F1FF3F0AD0504506D801D1644510
:103D180003DC03FB0040012701E04FF0FF3715F8F3
:103D2800014BD7E77B1C0CD1002E4FF0220314BFA8
:103D38004FF000406FF00040C8F800302AB9BDE8E5
:103D4800F08706B1404272B107B1691E1160BDE843
:103D5800F0873024002BB1D10823AFE70A23ADE761
:103D6800302CA3D0AAE7BDE8F08700BF44030020A9
:103D780013460A46014602480068FFF773BF00BFB2
:103D8800A80300201D000A085D000A0889000A0827
:103D98008D000A080000000000000000000000007C
:103DA800DF180A087D180A0889010A085D010A084F
:103DB80031302C261F170E040000000030000000D0
:103DC80080000000FF0000000078000016B3160015
:103DD80033FF680055A7161287640067C610008273
:103DE800FF0000A0536574206272696768746E658D
:103DF800737320746F2000536C656570005365748D
:103E0800205061747465726E20746F20002C0070ED
:103E180077723A006272743A00673A00623A006355
:103E28003A00747A3A00666C70636C6B3A004865C5
:103E38006C6C6F202D204C454420636F6E74726F3C
:103E48006C6C6572007061747465726E496E64653D
:103E580078007661726961626C6500706F7765726F
:103E6800006272696768746E657373006700620048
:103E780074696D657A6F6E6500666C6970436C6F06
:103E8800636B0022005D007061747465726E4E6130
:103E98006D6573005261696E626F77005261696E79
:103EA800626F77205769746820476C69747465720B
:103EB8000053696E656C6F6E0042656174004A75E7
:103EC80067676C65004D6574656F722053686F771E
:103ED8006572004A7567676C6520320046697265CD
:103EE80000576174657200000000F918FB301C4728
:103EF800825A6D6A4176897D003131295A1B750ACB
:103F080000000000000080000000000000008000A9
:103F180000008B000000800000008B0000008B0078
:103F280000008B000000FF0000A5FF00FFFFFF005E
:103F380000A5FF000000FF0000008B00000000004B
:103F48000000FF00002AD5000055AB00007FAB0041
:103F580000ABAB0000D5560000FF00002AD50000DA
:103F680055AB0000AA560000FF000000D5002A004B
:103F7800AB00550081007F005500AB002B00D50039
:103F8800AB0055007C0084004B00B5001B00E50029
:103F98000017E8000047B8000077AB0000ABAB00A3
:103FA8000055AB000022DD000E00F2003E00C2000A
:103FB80071008F00A1005F00D0002F00F9070000FA
:103FC800FF0000008B0000008B0000008B00000049
:103FD8008B0000008B0000008B0000008B000000AD
:103FE800FF0000008B000000EBCE8700EBCE8700BF
:103FF800E6D8AD00FFFFFF00E6D8AD00EBCE8700A6
:104008000000000000003300000066000000990076
:104018000000CC000000FF000033FF000066FF0036
:104028000099FF0000CCFF0000FFFF0033FFFF00F6
:1040380066FFFF0099FFFF00CCFFFF00FFFFFF00B6
:1040480000640000006400002F6B5500006400004D
:1040580000800000228B2200238E6B00008000006D
:10406800578B2E00AACD660032CD320032CD9A0091
:1040780090EE900000FC7C00AACD6600228B220006
:104088000000FF00000000000055AB000000000029
:1040980000ABAB000000000000FF000000000000C3
:1040A80055AB000000000000FF0000000000000009
:1040B800AB005500000000005500AB0000000000F8
:1040C800701919008B000000701919008000000099
:1040D8008B000000CD000000578B2E008080000070
:1040E800A09E5F00FF0000008B8B0000ED95640030
:1040F800D4FF7F00578B2E00FFFF0000FACE870009
:1041080000000000000000000B260A0855260A08D7
:104118002D260A080D260A0835260A083D260A080B
:1041280045260A084D260A08000000000000000085
:104138009B260A088D260A088F260A0866006C6ED8
:1041480000666E00636F64650064657461696C0085
:104158000D0A00253031307520005D2000256400EF
:104168002C200028293A2000205B00636F6465201A
:104178003D200025690064657461696C73203D20E9
:1041880000626175640053657269616C0055534241
:1041980053657269616C3100747970650070617281
:1041A800616D00636D6400696400686E6400737417
:1041B800726D0066696C74006C766C0061646448AA
:1041C800616E646C65720072656D6F766548616ECC
:1041D800646C657200656E756D48616E646C6572BD
:1041E80073004A534F4E53747265616D4C6F674844
:1041F800616E646C657200617070006E6F6E650050
:10420800747261636500696E666F007761726E0033
:104218006572726F720070616E696300616C6C0028
:10422800000000000000000025280A0827280A08C6
:104238005A00252B3033643A253032750025592D24
:10424800256D2D25645425483A254D3A2553257A60
:104258000061736374696D65000000000000000070
:1042680000000000E12B0A08052C0A08112C0A0896
:1042780011270A08ED2B0A08F92B0A08F32B0A085C
:10428800FF2B0A08E32B0A08E72B0A0800000000A6
:1042980000000000B92C0A08FD2C0A08D72C0A08CF
:1042A80011270A08D12C0A08BB2C0A08C32C0A08B3
:1042B800F72C0A08CB2C0A08B52C0A0800000000C5
:1042C800000000002B2E0A0800202020202020209B
:1042D80020202828282828202020202020202020AE
:1042E80020202020202020202088101010101010BE
:1042F800101010101010101010040404040404040A
:1043080004040410101010101010414141414141A3
:104318000101010101010101010101010101010185
:104328000101010110101010101042424242424295
:104338000202020202020202020202020202020255
:1043480002020202101010102000000000000000FD
:104358000000000000000000000000000000000055
:104368000000000000000000000000000000000045
:104378000000000000000000000000000000000035
:104388000000000000000000000000000000000025
:104398000000000000000000000000000000000015
:1043A8000000000000000000000000000000000005
:1043B80000000000000000000000000000000000F5
:1043C80000000000000000000000000000000000E5
:1043D80000000000000000000000000000000000D5
:1043E80000000000000000000000000000000000C5
:1043F80000000000000000000000000000000000B5
:1044080000000000000000000000000000000000A4
:104418000000000000000000000000000000000094
:104428000000000000000000000000004300000041
:1044380041190A087D1D0A08991D0A08ED200A0875
:1044480075220A0879220A087D220A0881220A08A8
:1044580085220A0801270A0809280A08552B0A088C
:10446800CD2B0A08352E0A0825310A0855310A08C5
:10447800A5310A0869320A08ED320A0871330A08B8
:0844880000000000000000002C
:044490000000000028
:104494000509000007000000630000005E01000041
:1044A4000400000001000000FF000000FAFFFFFF0D
:1044B400010000000102010104000000FFFFFFFFF2
:1044C400FF0000000300000009000000390500009F
:1044D40059420A08D0420A0800000000D4430A08DE
:1044E400F4430A0814440A08000000000000000015
:1044F400000000000000000034440A08000000002E
:1045040000000000000000000000000000000000A7
:104514000000000000000000000000000000000097
:104524000000000000000000000000000000000087
:0C45340000000000000000004803002010
:10454000FFFFFFFF00000102030405060708090A38
:104550000B0C0D0E0F101112131415161718191A33
:084560001B1C1D1E1F2028007A
:04456800785634123B
:04000005080A0018CD
:00000001FF
